:100000000C9476000C941A040C941A040C941A04A0
:100010000C941A040C941A040C941A040C941A04E8
:100020000C941A040C941A040C941A040C941A04D8
:100030000C941A040C941A040C941A040C941A04C8
:100040000C941A040C941A040C941A040C941A04B8
:100050000C941A040C941A040C941A040C941A04A8
:100060000C941A040C941A040C941A040C941A0498
:100070000C941A040C941A040C941A040C941A0488
:100080000C941A040C941A040C941A040C941A0478
:100090000C941A040C941A040C941A040C941A0468
:1000A0000C941A040C941A040C941A040C941A0458
:1000B0000C941A040C941A040C941A040C941A0448
:1000C0000C941A040C941A040C941A040C941A0438
:1000D0000C941A040C941A040C941A040C941A0428
:1000E0000C941A04020002010008380011241FBEFB
:1000F000CFEFD1E2DEBFCDBF00E00CBFE4EEF0E019
:1001000040E019C0B791A79137912791079107FD5A
:100110000EC097918791EF01F92FE82F0BBF079041
:100120000D92A217B307D9F7FE011BBE04C01D92A2
:10013000A217B307E1F7EB3EF40721F70E9429036A
:080140000C94A200F894FFCF1B
:10014800000000000000000000005F000000000048
:10015800000007000700000000147F147F1400004F
:1001680000242A7F2A12000000231308646200007A
:100178000036495522500000000005030000000029
:10018800001C2241000000000041221C0000000069
:1001980000082A1C2A0800000008083E0808000079
:1001A80000A060000000000000080808080800001F
:1001B8000060600000000000002010080402000039
:1001C800003E5149453E00000000427F40000000CB
:1001D8000062514949460000002241494936000061
:1001E800001814127F10000000274545453900000B
:1001F800003C4A494930000000017109050300002C
:10020800003649494936000000064949291E0000C0
:1002180000003636000000000000AC6C0000000052
:1002280000081422410000000014141414140000E3
:1002380000412214080000000002015109060000D4
:1002480000324979413E0000007E0909097E00001C
:10025800007F494949360000003E414141220000E3
:10026800007F4141221C0000007F494949410000AC
:10027800007F090909010000003E41415172000058
:10028800007F0808087F000000417F41000000004F
:10029800002040413F010000007F08142241000077
:1002A800007F404040400000007F020C027F0000B9
:1002B800007F0408107F0000003E4141413E0000DD
:1002C800007F090909060000003E4151215E000037
:1002D800007F0919294600000026494949320000D3
:1002E8000001017F01010000003F4040403F000045
:1002F800001F2040201F0000003F4038403F000002
:100308000063140814630000000304780403000069
:100318000061514945430000007F41410000000051
:1003280000020408102000000041417F0000000086
:100338000004020102040000008080808080000028
:10034800000102040000000000205454547800000A
:10035800007F484444380000003844442800000026
:1003680000384444487F00000038545454180000B2
:1003780000087E09020000000018A4A4A47C000064
:10038800007F08040478000000007D0000000000E1
:100398000080847D00000000007F102844000000D9
:1003A80000417F4000000000007C04180478000031
:1003B800007C08047C000000003844443800000039
:1003C80000FC24241800000000182424FC0000006D
:1003D80000007C0804000000004854542400000079
:1003E80000047F4400000000003C40407C00000006
:1003F800001C2040201C0000003C4030403C000015
:100408000044281028440000001CA0A07C00000024
:10041800004464544C4400000008364100000000C9
:1004280000007F00000000000041360800000000C6
:10043800000201010201000000020505020000009F
:10044800656E2074656B737420737472696E6700CF
:100458008EEA0E94DB0385ED0E94DB0380E80E94A0
:10046800DB0388EA0E94DB038FE30E94DB0383ED52
:100478000E94DB0380E00E94DB0380E40E94DB0330
:100488008DE80E94DB0384E10E94DB0380E20E9486
:10049800DB0380E00E94DB0381EA0E94DB0388EC37
:1004A8000E94DB038AED0E94DB0382E10E94DB03EA
:1004B80081E80E94DB038FEC0E94DB0389ED0E9438
:1004C800DB0381EF0E94DB038BED0E94DB0380E4FA
:1004D8000E94DB0384EA0E94DB0386EA0E94DB03B6
:0804E8008FEA0E94DB03089576
:1004F000DF92EF92FF920F931F93CF93DF930E94AF
:10050000C503E12CF12C6894DD24D5F82FC060E000
:100510008E2D0E94AF0300E010E020C0C8018D0DB9
:10052000911D8097880F991F880F991F880F991F19
:10053000A0E0885B9E4FAF4F8C0F9D1FA11DD7FD84
:10054000AA95FC0184910E94EB03219602C0C0E0B1
:10055000D0E0C830D10514F30F5F1F4F00311105F3
:10056000B4F3F0E1DF0E8FEFE81AF80AE6E0EE16DA
:10057000F1046CF2DF91CF911F910F91FF90EF90FA
:04058000DF9008956B
:100584000F931F93CF93DF93EC01862F062F642FD5
:100594000E94AF0322C08A3031F460E081E0800F12
:1005A4000E94AF03219610E015C0888190E08097E7
:1005B400880F991F880F991F880F991FA0E0885BE7
:1005C4009E4FAF4F810F911DA11DFC0184910E948C
:1005D400EB031F5F183048F3219688818111DBCF2C
:0A05E400DF91CF911F910F91089550
:1005EE001F93CF93DF93182F862F642F0E94AF0394
:1005FE00809100020E945A0380E40E949903C0E099
:10060E00D0E017C0812F90E08097880F991F880F38
:10061E00991F880F991FA0E0885B9E4FAF4F8C0FDC
:10062E009D1FA11DD7FDAA95FC0184910E949903DF
:10063E002196C830D10534F30E941204DF91CF9178
:04064E001F9108955B
:10065200CF93DF93CDB7DEB760970FB6F894DEBFC6
:100662000FBECDBF0E94090488E7809300020E945A
:100672007E030E942C020E94780228E434E040E0CB
:1006820080E1F901DE011196742F0E94FB030E94A2
:10069200C50342E050E061E070E081E60E94F702AB
:1006A20040E050E060E070E0CE0101960E94C2029C
:0206B200F0CF87
:1006B40094EA9093BC009091BC009923E4F7909144
:1006C400B900987F983091F48093BB0084E88093BC
:1006D400BC008091BC008823E4F78091B900887F36
:1006E400883131F0803231F482E0089580E0089559
:0806F40081E0089583E0089500
:1006FC0081B1816081B982B1816082B92FEF83EDC4
:10070C0090E3215080409040E1F700C0000082E16E
:10071C008093B800E9EBF0E080818C7F808385E0EA
:06072C008093BC0008955B
:100732008093BB0084E88093BC008091BC00882336
:10074200E4F78091B900887F883221F0803321F468
:0C07520081E0089580E0089582E00895A1
:10075E00CF93C62F80550E94DB038C2F880F880FF6
:10076E00880F88700E94DB038C2F90E096958795FA
:0C077E008F70805F0E94DB03CF91089514
:10078A00CF93DF93D0E00DC060E08D2F0E94AF03BE
:10079A00C0E004C080E00E94EB03CF5FCC23D4F713
:0C07AA00DF5FD83088F3DF91CF91089515
:1007B600CF93C82F809100020E945A0380E00E94C6
:1007C60099038C2F0E9499030E941204CF910895D9
:1007D600CF93C82F809100020E945A0380E40E94A2
:1007E60099038C2F0E9499030E941204CF910895B9
:1007F600992777FD06C07BBF07900D920197E1F719
:0C080600089501900D920197E1F708950C
:10081200E8E0F1E080818FEF808383B3806283BB65
:02082200089537
:1008240084E98093BC008091BC0084FDFCCF0895D2
:040834000C94000020
:010838007847
:00000001FF
