:1000000071C000008EC000008CC000008AC00000DB
:1000100088C00000C4C0000084C0000082C000008E
:1000200080C000007EC000007CC000007AC00000DC
:1000300078C0000076C0000074C0000072C00000EC
:1000400070C00000FFC000006CC000006AC000006B
:1000500068C0000066C0000064C0000062C000000C
:1000600060C000005FC000005CC000005AC000001B
:1000700058C0000056C0000054C0000052C000002C
:1000800050C000004EC000004CC000004AC000003C
:1000900048C0000046C0000044C0000042C000004C
:1000A00040C000003EC000003CC000003AC000005C
:1000B00038C0000036C0000034C0000032C000006C
:1000C00030C000002EC000002CC000002AC000007C
:1000D00028C0000026C0000024C0000022C000008C
:1000E00020C0000011241FBECFEFD1E2DEBFCDBF84
:1000F00000E00CBF12E0A0E0B2E0E4EBFAE000E0C8
:100100000BBF02C007900D92A432B107D9F722E0CD
:10011000A4E2B2E001C01D92A733B207E1F7B8D064
:10012000C7C46ECF1F920F920FB60F9211240BB659
:100130000F922F933F934F938F939F93EF93FF9340
:1001400080912402909125029C012F5F3F4F3093B4
:100150002502209324024091C600FC01E55DFD4F7D
:1001600040832A30310539F481E080932A021092CD
:10017000250210922402FF91EF919F918F914F9150
:100180003F912F910F900BBE0F900FBE0F901F90BD
:100190001895E1ECF0E080818068808308951F92DB
:1001A0000F920FB60F9211240BB60F922F933F931D
:1001B0004F935F936F937F938F939F93AF93BF936F
:1001C000EF93FF932FEF86E791E02150804090401E
:1001D000E1F700C0000010922C0210922B0280E088
:1001E00092E07FD12FEF86E791E021508040904050
:1001F000E1F700C00000FF91EF91BF91AF919F9197
:100200008F917F916F915F914F913F912F910F90BF
:100210000BBE0F900FBE0F901F901895E1E8F0E015
:1002200080818860808380818360808389EF90E013
:100230009093890080938800EFE6F0E080818260EF
:10024000808308951F920F920FB60F9211242F935F
:100250008F939F9380912802909129020196909309
:10026000290280932802873E934051F481E090E078
:10027000909327028093260210922902109228025E
:100280009F918F912F910F900FBE0F901F901895F7
:10029000CF93DF9300D000D0CDB7DEB72FEF8BE741
:1002A00092E9215080409040E1F700C0000087E6CD
:1002B00090E0FED0B3DF80E092E013D16ADF789463
:1002C00084B1806884B98DB18F7E8DB98CB1806125
:1002D0008CB9EAE6F0E080818260808380818E7F45
:1002E00080838DB380618DBB1092360280912A028B
:1002F000813029F410922A028BE292E0F2D02FEFA3
:1003000083ED90E3215080409040E1F700C0000071
:10031000EBE2F2E0878190E0AC0140535109268185
:1003200030E020533109C901880F991F220F331F74
:10033000220F331F220F331F280F391FCA01820FCC
:10034000931F448150E0405351093381232F30E003
:1003500020533109B901660F771F220F331F220F77
:10036000331F220F331F260F371F420F531F2181C8
:1003700030E0B901605371093081232F30E0205300
:100380003109F901EE0FFF1F220F331F220F331F18
:10039000220F331F2E0F3F1F260F371F8C010F5FB9
:1003A0001F4F0C33110509F05EC08A010F5F1F4F0C
:1003B0000C33110599F589010F5F1F4F1F930F93A0
:1003C00080E292E09F938F93CE0105969F938F9347
:1003D00094D00F900F900F900F900F900F900831C6
:1003E000110541F4EBE2F2E080E38083818300E0D9
:1003F00010E014C00A3011054CF4EBE2F2E080E3A7
:1004000080838D81818300E010E008C08D81EBE264
:10041000F2E080838E81818300E010E01F930F93D0
:1004200080E292E09F938F93CE0103969F938F93E8
:1004300064D00F900F900F900F900F900F900A3094
:1004400011054CF4EBE2F2E080E383838B8184833B
:1004500000E010E008C08B81EBE2F2E083838C8146
:10046000848300E010E01F930F9380E292E09F935B
:100470008F93CE0101969F938F933FD00F900F9053
:100480000F900F900F900F900A3011053CF4EBE2A3
:10049000F2E080E386838981878306C08981EBE26D
:1004A000F2E086838A8187838BE292E01AD01ECFA6
:1004B00022E02093C000E1ECF0E02081286120835D
:1004C000E2ECF0E02081266020839093C5008093C9
:1004D000C40008959091C00095FFFCCF8093C600A2
:1004E0000895CF93DF93EC0102C0F4DF2196888159
:1004F0008111FBCFDF91CF9108950F931F93CF937D
:10050000DF93CDB7DEB72E970FB6F894DEBF0FBEE0
:10051000CDBF0E891F8986E08C831A8309838FEFF4
:100520009FE79E838D83AE01465E5F4F688D798D18
:10053000CE01019610D0EF81F885E00FF11F1082F7
:100540002E960FB6F894DEBF0FBECDBFDF91CF91D0
:100550001F910F9108952F923F924F925F926F9249
:100560007F928F929F92AF92BF92CF92DF92EF9243
:10057000FF920F931F93CF93DF93CDB7DEB72B97E7
:100580000FB6F894DEBF0FBECDBF6C017B018A01B0
:10059000FC0117821682838181FFBFC1CE010196C3
:1005A0003C01F6019381F70193FD859193FF8191C1
:1005B0007F01882309F4ADC1853239F493FD85911B
:1005C00093FF81917F01853221F4B60190E0D6D16D
:1005D000E8CF912C212C312CFFE1F315D8F08B3290
:1005E00079F038F4803279F08332A1F4232D206140
:1005F0001DC08D3261F0803369F4232D216016C057
:10060000832D8260382EE32DE4603E2E2AC0F32D28
:10061000F8601DC037FC2DC020ED280F2A3040F0B7
:100620008E32B9F436FC75C1232D2064322E19C0E8
:1006300036FE06C08AE0989E200D1124922E11C02D
:10064000EAE02E9E200D1124222EF32DF0623F2E83
:1006500008C08C3621F4832D8068382E02C088367D
:1006600041F4F70193FD859193FF81917F01811101
:10067000B3CF982F9F7D9554933028F40C5F1F4F74
:100680009FE399830DC0833631F0833771F0833552
:1006900009F055C020C0F801808189830E5F1F4F8B
:1006A00088248394912C530112C02801F2E04F0E4C
:1006B000511CF801A080B18036FE03C0692D70E0A6
:1006C00002C06FEF7FEFC5014ED14C018201F32DC7
:1006D000FF773F2E15C0280122E0420E511CF80181
:1006E000A080B18036FE03C0692D70E002C06FEFBC
:1006F0007FEFC5012DD14C01F32DF0683F2E820113
:1007000033FC19C0822D90E088169906A0F4B6013A
:1007100080E290E033D12A94F5CFF50137FC859142
:1007200037FE81915F01B60190E028D121102A9413
:1007300021E0821A91088114910479F7E1C084368E
:1007400011F0893639F5F80137FE07C060817181F3
:10075000828193810C5F1F4F08C060817181072ED9
:10076000000C880B990B0E5F1F4FF32DFF763F2E69
:1007700097FF09C090958095709561957F4F8F4F39
:100780009F4FF0683F2E2AE030E0A30133D1882E3E
:10079000861844C0853731F4232D2F7EB22E2AE0EF
:1007A00030E025C0932D997FB92E8F36C1F018F413
:1007B000883579F0AEC0803719F0883721F0A9C0AC
:1007C000E92FE061BE2EB4FE0DC0FB2DF460BF2EFC
:1007D00009C034FE0AC0292F2660B22E06C028E0C8
:1007E00030E005C020E130E002C020E132E0F80155
:1007F000B7FE07C060817181828193810C5F1F4FBA
:1008000006C06081718180E090E00E5F1F4FA30100
:10081000F1D0882E8618FB2DFF773F2E36FE0DC0B7
:10082000232D2E7FA22E891458F434FE0BC032FCE7
:1008300009C0832D8E7EA82E05C0B82CA32C03C022
:10084000B82C01C0B92CA4FE0FC0FE01E80DF11DAB
:100850008081803321F49A2D997EA92E09C0A2FEB1
:1008600006C0B394B39404C08A2D867809F0B3947B
:10087000A3FC10C0A0FE06C0B21480F4280C922C79
:100880009B180DC0B21458F4B60180E290E076D007
:10089000B394F8CFB21418F42B1802C0982C212C62
:1008A000A4FE0FC0B60180E390E068D0A2FE16C09F
:1008B000A1FC03C088E790E002C088E590E0B601A3
:1008C0000CC08A2D867851F0A1FE02C08BE201C0D7
:1008D00080E2A7FC8DE2B60190E050D0891430F49C
:1008E000B60180E390E04AD09A94F8CF8A94F3015D
:1008F000E80DF11D8081B60190E040D08110F6CF67
:10090000222009F44ECEB60180E290E037D02A943E
:10091000F7CFF6018681978102C08FEF9FEF2B966C
:100920000FB6F894DEBF0FBECDBFDF91CF911F9100
:100930000F91FF90EF90DF90CF90BF90AF909F907E
:100940008F907F906F905F904F903F902F90089581
:10095000FC010590615070400110D8F7809590958A
:100960008E0F9F1F0895FC0161507040019001108F
:10097000D8F7809590958E0F9F1F08950F931F9322
:10098000CF93DF93FB01238121FD03C08FEF9FEF06
:100990002CC022FF16C04681578124813581421721
:1009A000530744F4A081B1819D012F5F3F4F3183F4
:1009B00020838C93268137812F5F3F4F3783268397
:1009C00014C08B01EC01FB010084F185E02D199529
:1009D000892BE1F6D80116968D919C911797019677
:1009E00017969C938E931697CE01DF91CF911F910E
:1009F0000F910895FA01AA27283051F1203181F191
:100A0000E8946F936E7F6E5F7F4F8F4F9F4FAF4F16
:100A1000B1E03ED0B4E03CD0670F781F891F9A1F29
:100A2000A11D680F791F8A1F911DA11D6A0F711DDD
:100A3000811D911DA11D20D009F468943F912AE0E9
:100A4000269F11243019305D3193DEF6CF010895D1
:100A5000462F4770405D4193B3E00FD0C9F7F6CF02
:100A6000462F4F70405D4A3318F0495D31FD4052CA
:100A7000419302D0A9F7EACFB4E0A6959795879560
:100A800077956795BA95C9F700976105710508953F
:100A90009B01AC010A2E06945795479537952795EB
:100AA000BA95C9F7620F731F841F951FA01D089583
:040AB000F894FFCFE8
:100AB40057726974652063757272656E7420746907
:100AC4006D6520696E2068683A6D6D3A73730A002B
:040AD4002569000090
:00000001FF
