S015000057617463685F70726F6A6563742E73726563C2
S113000071C000008EC000008CC000008AC00000D7
S113001088C0000086C0000084C0000082C00000C8
S113002080C000007EC000007CC000007AC00000D8
S113003078C0000076C0000074C0000072C00000E8
S113004070C000006EC000006CC000006AC00000F8
S113005068C0000066C0000064C0000062C0000008
S113006060C000005EC000005CC000005AC0000018
S113007058C0000056C0000054C0000052C0000028
S113008050C000004EC000004CC000004AC0000038
S113009048C0000046C0000044C0000042C0000048
S11300A040C000003EC000003CC000003AC0000058
S11300B038C0000036C0000034C0000032C0000068
S11300C030C000002EC000002CC000002AC0000078
S11300D028C0000026C0000024C0000022C0000088
S11300E020C0000011241FBECFEFD1E2DEBFCDBF80
S11300F000E00CBF12E0A0E0B2E0E4E0F2E000E0D7
S11301000BBF02C007900D92A030B107D9F722E0CF
S1130110A0E0B2E001C01D92A030B207E1F702D026
S11301206FC06ECFCF93DF93CDB7DEB764970FB6B2
S1130130F894DEBF0FBECDBF87E690E012D0FE017B
S1130140319684E1DF011D928A95E9F768E070E059
S1130150CE01019632D08830C9F7CE01019621D064
S1130160F5CF22E02093C000E1ECF0E0208128618B
S11301702083E2ECF0E02081266020839093C50088
S11301808093C40008959091C00095FFFCCF8093A4
S1130190C60008958091C0008823E4F78091C600CA
S11301A00895CF93DF93EC0102C0EDDF219688819F
S11301B08111FBCFDF91CF910895EF92FF920F93BE
S11301C01F93CF937C018B01E5DFC82F8D3051F451
S11301D00CC08C2FD8DFF701C0830130110549F41E
S11301E081E008C010161106A4F3F701108280E024
S11301F001C080E0CF911F910F91FF90EF9008957F
S1070200F894FFCF9C
S9030000FC
