:1000000071C000008EC000008CC000008AC00000DB
:1000100088C0000086C0000084C0000082C00000CC
:1000200080C000007EC000007CC000007AC00000DC
:1000300078C0000076C0000074C0000072C00000EC
:1000400070C000006EC000006CC000006AC00000FC
:1000500068C0000066C0000064C0000062C000000C
:1000600060C000005FC000005CC000005AC000001B
:1000700058C0000056C0000054C0000052C000002C
:1000800050C000004EC000004CC000004AC000003C
:1000900048C0000046C0000044C0000042C000004C
:1000A00040C000003EC000003CC000003AC000005C
:1000B00038C0000036C0000034C0000032C000006C
:1000C00030C000002EC000002CC000002AC000007C
:1000D00028C0000026C0000024C0000022C000008C
:1000E00020C0000011241FBECFEFD1E2DEBFCDBF84
:1000F00000E00CBF12E0A0E0B2E0EAE0F2E000E0D5
:100100000BBF02C007900D92A030B107D9F722E0D3
:10011000A0E0B2E001C01D92AC30B207E1F73FD0E1
:1001200072C06ECF1F920F920FB60F9211240BB6B2
:100130000F922F933F934F938F939F93EF93FF9340
:1001400080910002909101029C012F5F3F4F3093FC
:1001500001022093000240913601FC01ED5FFD4F4A
:1001600040832930310539F481E0809302021092F6
:10017000010210920002FF91EF919F918F914F9198
:100180003F912F910F900BBE0F900FBE0F901F90BD
:100190001895E1ECF0E0808180688083089587E61F
:1001A00090E00CD0F6DF7894809102028130E1F784
:1001B0001092020283E092E01AD0F6CF22E0209360
:1001C000C000E1ECF0E0208128612083E2ECF0E067
:1001D0002081266020839093C5008093C4000895F9
:1001E0009091C00095FFFCCF8093C6000895CF93F7
:1001F000DF93EC0102C0F4DF219688818111FBCFEF
:0A020000DF91CF910895F894FFCF2D
:00000001FF
